:1000000087C0A1C0A0C09FC09EC09DC09CC09BC017
:100010009AC099C098C097C096C095C094C093C02C
:1000200092C091C090C0485454502F312E3020348B
:10003000303120556E617574686F72697A65640D30
:100040000A436F6E74656E742D547970653A20742E
:100050006578742F68746D6C0D0A0D0A3C68313E2A
:1000600034303120556E617574686F72697A6564D9
:100070003C2F68313E003C68313E323030204F4BDF
:100080003C2F68313E003C2F63656E7465723E3CC8
:1000900068723E3C62723E534C462E524F0A003C00
:1000A00063656E7465723E3C703E454E4332384A1D
:1000B00036302073696C69636F6E207265762069D3
:1000C000733A204200485454502F312E30203230A1
:1000D00030204F4B0D0A436F6E74656E742D54794A
:1000E00070653A20746578742F68746D6C0D0A50D1
:1000F0007261676D613A206E6F2D63616368650D93
:100100000A0D0A006364696E6F70737578585B003E
:1001100011241FBECFE5D4E0DEBFCDBF11E0A0E6C5
:10012000B0E0E8E3F8E102C005900D92A030B1071D
:10013000D9F723E0A0E0B1E001C01D92AC33B207D3
:10014000E1F761D077CB5CCF80E882BB80E481BBF4
:10015000089586991CC084E690E030E422B32327FA
:1001600022BB2FE748E351E0215040405040E1F7E7
:1001700000C000000197009789F780B382958695AB
:100180008695837091E08927817090E0089580E0E2
:1001900090E0089545EC50E060E070E080E091E090
:1001A000B0C50895EF92FF920F931F93CF93DF9303
:1001B00000D000D01F92CDB7DEB78C01EBDF4FE946
:1001C00050E0BC01C8019DD57C0157D34AE0BE0177
:1001D0006F5F7F4F90E07BD7AE014F5F5F4FB701FE
:1001E000C801B9D546E850E0BC01C8018AD50F90D6
:1001F0000F900F900F900F90DF91CF911F910F9163
:10020000FF90EF900895CF93DF93CDB7DEB7AF9710
:100210000FB6F894DEBF0FBECDBF68D195DF99DF72
:100220008C01CE014596C2D1992314F0012BC1F067
:100230001D8A83E58E8B8CE48F8B86E4888F198EE4
:1002400081E08A8F80EC8B8F88EA8C8F1D8E8FE601
:100250008E8F89EF91E198A38F8FCE014596C4D1FF
:10026000969A80E08A95F1F7CE01459683D282E096
:100270007CD280E08A95F1F766E774E084E15CD295
:10028000B99AC19ABE01655E7F4FCE01459615D6DB
:1002900082E99FE123D660E071E086E292E029D313
:1002A0007C01BC0180E091E068D66C010AE211E0BB
:1002B0000F2EFFE46F2EFBE47F2E812CF02D5E01CC
:1002C00022E2A20EB11C2E0134E2430E511C1E018B
:1002D0008AE2280E311CDE019896BDA7ACA7FE016C
:1002E000B696FFA7EEA7C114D10461F144E050E037
:1002F000B60160507F4F82E690E0D0D6892B41F066
:1003000049DF46E750E0BC0180E091E0FAD415C037
:10031000B6016C5F7E4F42E050E087E690E0BED6CB
:10032000892B21F480E091E03DDF07C046E250E0F8
:1003300060E070E080E091E0E4D4BC0180E091E016
:1003400006D6C8C0B70180E091E0E9D3882309F45C
:10035000C1C0A7E1B1E08C91813109F0BBC08F8DA4
:1003600098A1E4E2F1E0408150E0292F33274217C1
:10037000530709F0AFC0A5E2B1E02C9130E0992716
:100380002817390709F0A6C0F80180818A3209F0E0
:1003900042C03F922F92FDA5FF932CA52F933FA51E
:1003A0003F938EA58F935F924F92BF92AF928AE652
:1003B00090E09F938F931F930F93ACD60FB6F89452
:1003C000DEBF0FBECDBF059759F089E2EAE7F0E046
:1003D000DE01119601900D928A95E1F7912C53C0A0
:1003E0008AA18B8F8CA18C8F8EA18D8F88A58E8FEB
:1003F0008AA59BA598A38F8FCE014596F5D08DE158
:10040000E3EAF0E0DE01119601900D928A95E1F7A2
:100410009924939438C08A3381F55F924F92BF92AA
:10042000AF92A0ECB0E0BF93AF931F930F9372D63F
:100430000FB6F894DEBF0FBECDBF029759F089E327
:10044000E7ECF0E0DE01119601900D928A95E1F75C
:10045000912C19C08AA1898F8CA18A8FCE014596D3
:10046000C3D08DE1E3EAF0E0DE01119601900D9238
:100470008A95E1F79924939406C069827A828B82E7
:10048000C80142D0912CEF8CF8A063E270E0CE015D
:10049000019612D69701482FBE016F5F7F4F80E013
:1004A00091E0F7D460E071E086E292E022D27C0134
:1004B000BC0180E091E061D56C01992009F413CF73
:1004C0002DE088E190E00FB6F894A89581BD0FBEAD
:1004D00021BDFFCF60E071E086E292E00AD27C01AC
:1004E000BC0180E091E049D56C01FDCEF89410BCD0
:1004F00083E389B988E18AB986E880BD7894089554
:100500008CB95D9BFECF08950F931F93CF93DF931C
:10051000FC0101900020E9F731971E2F181B79F09C
:10052000082FC02FD92F8991EBDF8FE59AEE019725
:10053000F1F700C000008C2F801B8117A0F38DE025
:10054000DFDF8AE0DDDFDF91CF911F910F9108950A
:100550000F931F93CF93DF938CE090E099D8082FEF
:100560008F3F49F41092280381E080932703809302
:10057000290380E016C0C9E1D0E010E0CE0188D8A0
:1005800091E0900F981306C01F5F2D96123141F035
:10059000092FF4CF1093280300932703812F01C064
:1005A000812FDF91CF911F910F9108950F931F938A
:1005B000CF93DF93EC01CCDF082F10E0609128038C
:1005C0008DE0689FB00111244DE050E0CE0150D87D
:1005D0008E8181508E3F10F00FEF1FEFC801DF9129
:1005E000CF911F910F91089520912903213081F01F
:1005F000209128032F5F233118F42093280302C091
:1006000010922803209127032F5F2093270302C015
:100610001092290320912703FC012487609128036D
:10062000FDE06F9FB00111244DE050E039C80895FE
:10063000C298962F6F71862B8FB9779BFECF1FB80C
:10064000779BFECF99231CF41FB8779BFECFC29AED
:100650008FB10895C2986F71862B8FB9779BFECFAB
:100660004FB9779BFECFC29A0895FB01C2982AE347
:100670002FB9779BFECF009761F0DF01A80FB91F5C
:100680001FB8779BFECF8FB18193EA17FB07C1F7A5
:1006900001C0DF011C92C29A0895FB01C2982AE7AB
:1006A0002FB9779BFECF07C08E0F9F1F21912FB9C7
:1006B000779BFECF03C00097B9F703C0E817F9078F
:1006C000A9F7C29A08951F93CF93DF93182F10763E
:1006D000C12FD0E020912C0330E0C217D307A1F046
:1006E00043E06FE180EAB6DFAE0155954795559539
:1006F00047955595479555954795559547956FE17C
:1007000080E8A8DF10932C03DF91CF911F9108950B
:10071000CF93C82FD8DF6C2F80E08ADFCF91089568
:10072000CF93DF93C82FD62FCEDF4D2F6C2F80E4D1
:1007300091DFDF91CF910895CF93DF93D62FC72F0D
:10074000682F84EDEDDF6D2F86EDEADF6C2F87EDEE
:10075000E7DFC8E203C08C2F8A95F1F78AEED8DF75
:1007600080FDF9CFDF91CF910895682F677085E7FD
:10077000D7CF0895CF93DF93EC01BA9AC29A87B38B
:10078000886287BBBC98C398C59880E58DB9709A7C
:100790004FEF60E08FEF5EDF80E090E00197F1F7D0
:1007A00010922B0310922A0360E088E0B9DF60E02A
:1007B00089E0B6DF60E08CE0B3DF60E08DE0B0DFC1
:1007C0006FEF8AE0ADDF69E18BE0AADF60E084E0F3
:1007D000A7DF6AE185E0A4DF6FEF86E0A1DF6FE1CC
:1007E00087E09EDF60EB88E39BDF6FE388E298DFC2
:1007F00060E389E295DF69EF80E392DF67EF81E3F1
:100800008FDF6DE080EC8CDF60E081EC89DF42E31C
:1008100062EC80E81FDF62E186EC82DF6CE087EC4F
:100820007FDF62E184EC7CDF6CED8AEC79DF65E0F0
:100830008BEC76DF688184EE73DF698185EE70DF93
:100840006A8182EE6DDF6B8183EE6ADF6C8180EE00
:1008500067DF6D8181EE64DF60E071E080E16CDF75
:100860008FE131DF40EC6BE180E8F4DE44E06FE1E2
:1008700080E8F0DEDF91CF91089582E749DF86308E
:1008800008F08F5F08950F931F93CF93DF93EC01D0
:100890008B010CC08CE13CDF81FF08C040E86FE1B8
:1008A00080E8D8DE40E86FE180EAD4DE6FE180E0E6
:1008B000BFDE83FDEFCF60E082E032DF6AE183E0FC
:1008C0002FDF6C2F86E02CDFCE01965E692F87E04C
:1008D00027DF40E060E08AE7BDDEB801CE01DDDE63
:1008E00048E06FE180E8B6DEDF91CF911F910F9174
:1008F0000895AF92BF92CF92DF92EF92FF920F9343
:100900001F93CF93DF93EC017B0189E301DF882301
:1009100009F455C060912A0310912B0380E000DF99
:10092000612F81E0FDDE60E08AE382DE082F60E077
:100930008AE37EDE10E0182B10932B0300932A032A
:1009400060E08AE375DEA82E60E08AE371DEB82EEF
:1009500060E08AE36DDEC82E60E08AE369DEC7FEF0
:100960000FC09E0121503109CA2DD0E0DB29249708
:100970002C173D0708F4E901B701CE0176DE02C06D
:10098000C0E0D0E0780181E0E81AF108E1148AE1E2
:10099000F8063CF06FEF8CE0C3DE69E18DE0C0DE6D
:1009A00007C06FEF600F8CE0BBDE6F2D8DE0B8DE0F
:1009B00040E46EE180E84EDE8C2F9D2F02C080E087
:1009C00090E0DF91CF911F910F91FF90EF90DF901A
:1009D000CF90BF90AF900895FF920F931F93CF9346
:1009E000DF93EB01413051F4AB014850510960E015
:1009F00070E04F5E5F4F6F4F7F4F0FC0423051F43A
:100A0000AB014850510960E070E04A5F5F4F6F4FA3
:100A10007F4F03C040E050E0BA01C230D105F8F08A
:100A2000DE01FC01008110E020E030E0322F212FB8
:100A3000102F0027F1800F29400F511F621F731FD5
:100A400032961297A230B10568F79E012250310903
:100A50002E7F2E5F3F4F820F931FC170DD27CD2B5E
:100A600069F0FC01808190E0A0E0B0E0BA2FA92FEE
:100A7000982F8827480F591F6A1F7B1FCB01AA2771
:100A8000BB270097A105B10569F066277727480FB6
:100A9000591F6A1F7B1FCB01AA27BB270097A105FF
:100AA000B10599F7CA0180959095DF91CF911F917B
:100AB0000F91FF900895009741F026E0FC01A6E316
:100AC000B3E001900D922A95E1F70895693271051E
:100AD000D0F0FC0124852830C1F425852630B9F4F6
:100AE00036A120913203321314C0DC019796E3E360
:100AF000F3E086E393E03D91219132130CC0E817B7
:100B0000F907C9F70AC080E0089580E0089580E001
:100B1000089580E0089580E0089581E008956A32A4
:100B20007105E8F0FC0124852830D9F425852111D0
:100B30001AC026852534C9F4368D2091320332132C
:100B400016C0DC015F96E3E3F3E086E393E03D91BA
:100B5000219132130EC0E817F907C9F70CC080E0E5
:100B6000089580E0089580E0089580E0089580E091
:100B7000089580E0089581E00895CF93DF93EC011C
:100B8000A6E3B3E0FC0136968CE393E02081299341
:100B90002D912193A817B907C9F7DF91CF91089537
:100BA000CF93DF93EC01188E198E80E48C8B1D8A15
:100BB0008E8B40E064E170E0CE010E960DDF988FE1
:100BC000898FDF91CF910895CF93DF93EC016E96DB
:100BD000A2E3B3E0FC017A9626E333E04081499337
:100BE0004D914193A217B307C9F7DADFDF91CF9197
:100BF0000895FC01BA96DC019E9686962291620FBA
:100C0000711D2E916C93442311F0208301C010823A
:100C1000672F7727E817F90789F70895CF93DF93B0
:100C2000EC018CA19AA19CA38AA38DA19BA19DA359
:100C30008BA3CE01DEDF1AAA1BAA80E58EA7DF9167
:100C4000CF9108950F931F93CF93DF938C0195DF7E
:100C5000F801148A82E0858BE801A096A6E3B3E050
:100C600076968CE393E0208129932D912193A81708
:100C7000B907C9F7E801A696A2E3B3E0F8017C96AC
:100C800086E393E0208129932D912193A817B9073A
:100C9000C9F7B8018AE290E0F6DDDF91CF911F91AC
:100CA0000F9108950F931F93CF93DF93EC018B0166
:100CB00064DFCE0189DF1AA28CA1883F18F09DA1C4
:100CC0009F5F9DA3885F8CA3BE01C801DCDDDF911F
:100CD000CF911F910F910895FC01808990E0982F8A
:100CE00088272189822B449726A522952F7034E0EE
:100CF000239F801991091124992314F480E090E036
:100D00000895FA012491222381F0DB01D696A80FE1
:100D1000B91FCB012D930196FC01E40FF51FE61BD3
:100D2000F70B24912111F6CF0895CB0108952223CA
:100D300081F0E42FF52FDB01D696A80FB91F822F83
:100D400091919D938150E1F72150620F711D6F5F6A
:100D50007F4FCB010895FA0101900020E9F7319708
:100D60009F01241B350BE3CF0895FF920F931F9330
:100D7000CF93DF93EC018B01F42EFFDE8F2D80618A
:100D80008FA784E0F81205C041E0B801CE0146DF2C
:100D900009C00115110511F401E010E041E0B801AE
:100DA000CE013CDF188A88E2898BCE010DDF84E01A
:100DB00088AB19AA42E06CE170E0CE014A960CDEE5
:100DC0009AAB8BABBE0186E390E05DDDDF91CF9106
:100DD0001F910F91FF9008950F931F93CF93DF936F
:100DE000EC018B01CB018896988B898BCE01D8DEE4
:100DF0001AAA1BAAB801645E7F4F42E0CE014A9650
:100E0000EBDD9AAB8BABBE01C801C6963CDDDF9132
:100E1000CF911F910F910895CF92DF92EF92FF92A1
:100E20000F931F93CF93DF93EC01C62ED72EF42E92
:100E3000E52EA3DE0C2D1D2D0D3D110510F00CED42
:100E400010E0C8014C96988B898BCE01BDDE8AA13B
:100E50008CA38BA18DA3EAA2FBA2C80108969EA336
:100E60008FA318A619A6B801605F7F4F41E0CE019D
:100E70004A96B2DD98A789A7BE01C8018A9603DD0C
:100E8000DF91CF911F910F91FF90EF90DF90CF9066
:100E90000895CF93442359F0C62FDC019A96E62F8C
:100EA000F72F51915D935E2F5C1B5417D0F3642F85
:100EB00070E0A901B1DFCF9108956115710551F07E
:100EC000DB01E2E3F3E026E333E04D914193E217E7
:100ED000F307D9F7009709F0EECD089590932F030B
:100EE000809360000895CF93DF93EC0146DE188A6B
:100EF0008CE2898BCE0168DE82E18FA740E061E061
:100F000070E0CE018BDE1EA21FA28091610088A737
:100F100019A68D5F8093610082E08EAB84E08FAB79
:100F200085E088AF19AE80E68EA78AE088AB19AA63
:100F300042E060E270E0CE014A964EDD9AAB8BABA8
:100F4000BE018AE390E09FDCDF91CF9108950F937B
:100F50001F93CF93DF93EC018B0160912D03709170
:100F60002E0340E002DF89E18FA7B801CE0134DF14
:100F7000DF91CF911F910F910895FF920F931F93CF
:100F8000CF93DF93EC018B01A1DD882349F08D899C
:100F9000813009F060C0CE0155DE80E090E078C07D
:100FA000B801CE01BCDD882309F458C08F89813097
:100FB00099F48AA1883009F054C0E0913003F0918F
:100FC0003103309719F0CE014A960995B801CE0148
:100FD00069DE80E090E05CC00633110508F444C08F
:100FE000863009F044C09CA180912F03981342C021
:100FF0009DA180916000981340C0FFA4F1FE05C040
:10100000CE0171DF80E090E043C0F4FE39C0CE0134
:1010100063DE90932E0380932D03892B51F4F0FE11
:1010200032C040E060E070E0CE019FDE80E090E002
:101030002FC02EA522952F7030E0220F331F220FD4
:10104000331F2E5D3F4F0850110902171307F0F4AC
:1010500080E090E01DC080E090E01AC080E090E069
:1010600017C080E090E014C080E090E011C080E004
:1010700090E00EC080E090E00BC080E090E008C0FF
:1010800080E090E005C080E090E002C0822F932FC6
:10109000DF91CF911F910F91FF900895FB01DC012B
:1010A0004150504030F08D910190801919F400208A
:1010B000B9F7881B990B0895FC01615070400190AD
:1010C0000110D8F7809590958E0F9F1F0895BB272C
:1010D0004A3031F4992322F4BDE2909581959F4FD7
:1010E00001C0BB27FB015527AA27880F991FAA1FFC
:1010F000A41710F0A41B83955051B9F7A05DAA3333
:1011000008F0A95DA193009779F7B111B1931192FD
:10111000CB01EFC2AEE0B0E0EFE8F8E064C385E0F9
:101120008C838B899C899A838983AE01495E5F4F4A
:101130006D897E89CE01019672D12E96E2E06FC351
:1011400020FD09C0FC0123FD05C022FF02C07383FE
:10115000628351834083089544FD10C046FD10C052
:10116000DB01FC01AA0FBB1FEE1FFF1F1094D1F77C
:101170006A0F7B1F8E1F9F1F31E003C033E001C049
:1011800034E0660F771F881F991F3150D1F7620F27
:10119000711D811D911D08950F931F93CF93DF93B0
:1011A0008C01C801B6D2EC0197FD06C08FD2892B05
:1011B000C1F7B801CE01EBD2CE01DF91CF911F91E3
:1011C0000F9108958F929F92AF92CF92DF92EF92FC
:1011D000FF920F931F93CF93DF93EC01A62E4A014A
:1011E000022F97D2AC0155274B32510521F04D32D9
:1011F000510549F40068AA9411F480E060C0CE0162
:1012000088D297FDFACF102F1D7F302F3073F1F465
:101210008033E1F4FF24FA94FA0C09F43DC0CE01C6
:1012200078D297FD39C0382F3F7D383549F41264A4
:10123000AA94AA9489F1CE016CD297FF07C02CC062
:1012400006FF02C0126001C01261AF2CC12CD12C6C
:10125000760120ED280F283078F014FF03C0BE017E
:1012600096D217C02A3040F016FFF9CF2F7D3FEEFF
:10127000320F3630A0F72750412FC701B6016CDF7F
:101280006B017C011260AA9451F0CE0142D297FF0B
:10129000E0CF11FD04C0B1CFC12CD12C760117FFD6
:1012A00008C0F094E094D094C094C11CD11CE11CFF
:1012B000F11C212FB701A601C40142DF81E0DF91BB
:1012C000CF911F910F91FF90EF90DF90CF90AF9053
:1012D0009F908F900895A1E2B0E0E0E7F9E078C236
:1012E0005C017A018E010F5F1F4F680180E2D80117
:1012F0001D928A95E9F7F501738040E050E0812C5A
:10130000B0E0912C81E090E0F90173FCA59173FEAF
:10131000A1918F017A2F9F01A11103C080E090E07D
:101320007BC0AE3519F44115510559F1E92DF0E0B6
:10133000E417F5073CF4AD3569F1AD3219F4BB2380
:1013400019F103C0B11101C08A2EE72FE695E69589
:10135000E69586010E0F111DF801A72FA7708C01CD
:1013600002C0000F111FAA95E2F7D801B081BA2B75
:10137000B083781559F0781510F47F5FE6CF71507F
:10138000E4CF9924939403C0B1E001C0B0E04F5F73
:101390005F4FBACFBB2319F08E8180628E8391108C
:1013A00003C09924939415C0F601CE018196208143
:1013B00020952193E817F907D1F7F3CFE114F10451
:1013C00029F0D7018C93F70131967F016150F1F03C
:1013D000912CC50169A39DD169A197FD15C0282F46
:1013E000269526952695F601E20FF11D208130E025
:1013F000AC014770552702C0359527954A95E2F70D
:1014000020FDDCCFB501C3D1911088CFE114F104E8
:1014100011F0D7011C92C801A196EDE0F5C14F92E1
:101420005F927F928F929F92AF92BF92CF92DF9204
:10143000EF92FF920F931F93CF93DF931F92CDB73D
:10144000DEB78C012B017A01FC0117821682A12CD8
:10145000F801D380F201D3FC8591D3FE8191382F1E
:101460002F01882309F4EEC090E039832FD1398110
:10147000892B19F0C80190DEEBCF353241F4F2012F
:10148000D3FC3591D3FE31912F01353259F4C80187
:1014900039833FD1398197FDD3C03817C9F2B801DC
:1014A00076D1D0C03A3241F4D3FC3591D3FE31919C
:1014B0002F01BB24B39401C0B12C712C20ED230F5C
:1014C0002A3088F4FB2DF260BF2E672D70E080E09B
:1014D00090E040E241DE762EF201D3FC3591D3FE5E
:1014E00031912F01EBCFB1FE03C0711003C0AAC030
:1014F00077247A94383619F03C3661F014C0F20142
:10150000D3FC3591D3FE31912F01383661F4FB2D98
:10151000F860BF2E8B2D8460B82EF201D3FC35917C
:10152000D3FE31912F01332309F48CC0632F70E077
:1015300084E091E03983D2D03981892B09F482C0CB
:10154000B0FC07C0F701C080D180C70102967C01C2
:1015500002C0C12CD12C3E3649F4F8014681578196
:1015600060E070E02B2DC601EBDD72CF333699F4CD
:10157000B1FC02C077247394C801CBD097FD60C042
:10158000C114D10429F0F6018083C60101966C01D3
:101590007A9491F751C03B3551F49201A601672D21
:1015A000C80199DE2C01009709F046C040C0C8016F
:1015B0003983F2DD398197FD43C03F3651F128F47C
:1015C000343619F1393661F128C0333769F03537CF
:1015D000E1F023C0C114D10429F0F6018082C601D4
:1015E00001966C017A9459F0C80193D04C0197FD93
:1015F00006C06CD0892B71F3B801C401C8D0C114E6
:10160000D104D1F0F601108217C0FB2DF062BF2E7D
:1016100007C08B2D8061B82E03C09B2D9064B92E1E
:101620002B2DA601672DC801CDDD811105C0F80164
:101630008381807329F406C0B0FC0ACFA39408CF3D
:10164000AA2019F08A2D90E002C08FEF9FEF0F9033
:10165000DF91CF911F910F91FF90EF90DF90CF908E
:10166000BF90AF909F908F907F905F904F90089524
:10167000DC01CB01FC01E199FECF06C0FFBBEEBB54
:10168000E09A31960DB20D9241505040B8F708954E
:10169000E199FECF9FBB8EBBE09A99278DB3089549
:1016A000DC01CB0102C02D9105D041505040D8F74C
:1016B0000895262FE199FECF9FBB8EBB2DBB0FB6A1
:1016C000F894E29AE19A0FBE01960895911178C0BC
:1016D000803219F089508550D0F70895FC010590AB
:1016E000061621F00020D9F7C00108953197CF01E7
:1016F0000895DC01FC01672F71917723E1F73297A0
:1017000004C07C916D9370836291AE17BF07C8F3DC
:101710000895CF93DF93EC012B8120FF33C026FF88
:101720000AC02F7B2B838E819F8101969F838E839E
:101730008A8190E029C022FF0FC0E881F981808171
:10174000992787FD9095009719F420622B831AC082
:101750003196F983E8830EC0EA85FB85099597FFEA
:1017600009C02B81019611F480E101C080E2822B37
:101770008B8308C02E813F812F5F3F4F3F832E8395
:10178000992702C08FEF9FEFDF91CF910895FB0162
:10179000238120FF12C026FD10C08F3F3FEF93072B
:1017A00061F082832F7D206423832681378121503D
:1017B000310937832683992708958FEF9FEF089586
:1017C0009927882708952F923F924F925F926F92A8
:1017D0007F928F929F92AF92BF92CF92DF92EF92C1
:1017E000FF920F931F93CF93DF93CDB7DEB7CA1B42
:1017F000DB0B0FB6F894DEBF0FBECDBF09942A886D
:10180000398848885F846E847D848C849B84AA8414
:10181000B984C884DF80EE80FD800C811B81AA81A1
:10182000B981CE0FD11D0FB6F894DEBF0FBECDBF6C
:08183000ED010895F894FFCFCB
:10183800500A47455420002F20002A25642E25648D
:101848002E25642E25643A256400436F6E66696709
:10185800206572726F723A20506C656173652075ED
:10186800736520666F726D6174202A49503A706FF3
:10187800727400436F6E66696720736574204F4BFE
:101888002E2052657374617274696E672E2E2E0055
:101898003A25783A257800436F6E66696720657245
:1018A800726F723A20506C6561736520757365209C
:1018B800666F726D6174203A61343A39322061730F
:1018C800206D61633520616E64206D61633621008F
:00000001FF
